:100000000C945E000C945D050C9436050C948600EF
:100010000C9486000C9486000C9486000C941204B8
:100020000C9486000C9486000C9486000C94860038
:100030000C9486000C9486000C9486000C94860028
:100040000C94EC040C9486000C94BA040C94940464
:100050000C9486000C9486000C9486000C94860008
:100060000C9484050C9486000000000024002700F6
:100070002A0000000008000201000003040700003D
:10008000000000000000010204081020408001026E
:1000900004081020010204081020000000002500C0
:1000A00028002B00040404040404040402020202D5
:1000B00002020303030303030200B20611241FBE5E
:1000C000CFEFD8E0DEBFCDBF11E0A0E0B1E0E8ECBB
:1000D000F3E102C005900D92AE34B107D9F722E0EA
:1000E000AEE4B1E001C01D92AC3CB207E1F710E014
:1000F000CEE5D0E004C02197FE010E94D709CD359E
:10010000D107C9F70E94FC060C94E2090C94000088
:10011000CF92DF92EF92FF920F931F93CF93DF93D3
:100120006C017A018B01C0E0D0E0CE15DF0589F0CB
:10013000D8016D918D01D601ED91FC910190F08176
:10014000E02DC6010995892B11F47E0102C021968C
:10015000ECCFC701DF91CF911F910F91FF90EF90EE
:10016000DF90CF900895FC01538D448D252F30E012
:10017000842F90E0821B930B541710F0CF960895B4
:1001800001970895FC01918D828D981761F0828D01
:10019000DF01A80FB11D5D968C91928D9F5F9F73BB
:1001A000928F90E008958FEF9FEF0895FC01918D5D
:1001B000828D981731F0828DE80FF11D858D90E0CA
:1001C00008958FEF9FEF0895FC01918D228D892F67
:1001D00090E0805C9F4F821B91098F73992708954F
:1001E00087E192E00E94E40021E0892B09F420E0FD
:1001F000822F0895FC01848DDF01A80FB11DA35A41
:10020000BF4F2C91848D90E001968F739927848F36
:10021000A689B7892C93A089B1898C9180648C932D
:10022000938D848D981306C00288F389E02D808118
:100230008F7D80830895EF92FF920F931F93CF934A
:10024000DF93EC0181E0888F9B8D8C8D981305C026
:10025000E889F989808185FD24C0F62E0B8D10E098
:100260000F5F1F4F0F731127E02E8C8DE8120CC00B
:100270000FB607FCFACFE889F989808185FFF5CFB1
:10028000CE010E94FA00F1CF8B8DFE01E80FF11D27
:10029000E35AFF4FF0820B8FEA89FB8980818062ED
:1002A00007C0EE89FF896083E889F98980818064CD
:1002B000808381E090E0DF91CF911F910F91FF90BB
:1002C000EF900895CF93DF93EC01888D8823C9F0D8
:1002D000EA89FB89808185FD05C0A889B9898C914F
:1002E00086FD0FC00FB607FCF5CF808185FFF2CFEA
:1002F000A889B9898C9185FFEDCFCE010E94FA00C3
:10030000E7CFDF91CF91089580E090E0892B29F02D
:100310000E94F00081110C940000089590E0FC010F
:10032000EE58FF4F3491FC01EA57FF4F2491FC0136
:10033000EC55FF4FE491EE2309F43BC0332339F130
:10034000333091F038F43130A9F0323001F584B512
:100350008F7D12C0373091F03830A1F03430B9F4CD
:10036000809180008F7D03C0809180008F77809383
:1003700080000DC084B58F7784BD09C08091B00026
:100380008F7703C08091B0008F7D8093B000F0E044
:10039000EE0FFF1FE656FF4FA591B4918FB7F8946B
:1003A000EC91611103C020952E2301C02E2B2C93BC
:1003B0008FBF0895CF93DF9390E0FC01EA57FF4F82
:1003C0002491FC01EC55FF4F8491882361F190E06A
:1003D000880F991FFC01E859FF4FC591D491FC018A
:1003E000E656FF4FA591B491611109C09FB7F894EB
:1003F0008881209582238883EC912E230BC0623064
:1004000061F49FB7F8943881822F80958323888385
:10041000EC912E2B2C939FBF06C08FB7F894E881E8
:100420002E2B28838FBFDF91CF9108953FB7F8948B
:100430008091E0019091E101A091E201B091E3018E
:1004400026B5A89B05C02F3F19F00196A11DB11D2F
:100450003FBFBA2FA92F982F8827820F911DA11D6A
:10046000B11DBC01CD0142E0660F771F881F991FA7
:100470004A95D1F708958F929F92AF92BF92CF92F3
:10048000DF92EF92FF926B017C010E9416024B01FA
:100490005C01C114D104E104F104F1F00E941602E0
:1004A000DC01CB0188199909AA09BB09883E934050
:1004B000A105B10570F321E0C21AD108E108F108E5
:1004C00088EE880E83E0981EA11CB11CC114D104D3
:1004D000E104F10419F7DDCFFF90EF90DF90CF90AA
:1004E000BF90AF909F908F900895089585ED809371
:1004F000BC008091BC0084FDFCCF1092E601089501
:1005000040917401262F30E0240F311D2132310536
:10051000DCF42091E6012430C9F4FC0180E090E095
:10052000861758F4309174012191DC01AE5ABE4F08
:10053000A30FB11D2C930196F3CF80917401680F26
:100540006093740180E0089581E0089582E0089549
:10055000089581E090E03091EA012091E90132179D
:1005600010F480E090E09195819591090895809133
:10057000EA019091E901891730F48F5F8093EA01D5
:1005800080E090E008958FEF9FEF08958091E9015A
:1005900090E02091EA01821B91090895CF92DF92A9
:1005A000EF92FF920F931F93CF93DF937C01262F3F
:1005B000972F8A018091BD01882391F0C62FD72FF4
:1005C0006E01C40ED51ECC15DD0571F06991D70101
:1005D000ED91FC910190F081E02DC7010995F3CFD9
:1005E000642F822F0E948002C801DF91CF911F915A
:1005F0000F91FF90EF90DF90CF900895CF93DF930E
:100600001F92CDB7DEB769832091BD012223D1F0BF
:100610002091E701203240F021E030E0FC013383FB
:10062000228380E090E015C08091E801E82FF0E09F
:10063000E254FE4F998190838F5F8093E80180930D
:10064000E70105C061E0CE0101960E94800281E0D1
:1006500090E00F90DF91CF910895CF93FC01C4817A
:1006600021E02093BD01C093DE011092E8011092B9
:10067000E7018385682B84EB92E00E94FE02809163
:10068000E701813208F046C09091E6019111FCCF5C
:1006900092E09093E60191E09093E5019FEF9093B3
:1006A000BC011092BB018093BA01AEEBB1E02AE924
:1006B00031E0F9019E2F921B981718F49D919193A8
:1006C000F9CF1092990180919901CC0FC82BC0935A
:1006D00099018091E401813061F41092E4018091EC
:1006E00099018093BB008091BC0083FDF8CF85EC1D
:1006F00001C085EE8093BC008091E6018230E1F379
:100700008091BC018F3F31F08091BC01803211F0AB
:100710008091BC011092E8011092E7011092BD0196
:10072000CF9108950F931F93CF938C01C62F0E94F2
:100730002D036C2F6460C8010E942D036C2F6B7F0A
:10074000C8010E942D0383EC90E00197F1F7CF914F
:100750001F910F910895FF920F931F93CF93DF93F3
:100760001F92CDB7DEB78C01F62E962F907F692FA2
:10077000642BC80149830E94920380E1F89EB00176
:1007800011244981642BC8010F90DF91CF911F91F3
:100790000F91FF900C94920340E060E880EC92E0AF
:1007A0000C94AB0341E00E94AB0381E090E008951C
:1007B000089580E090E008950F931F932FB7F89469
:1007C0008091EB019091EC01A091ED01B091EE01CF
:1007D0002FBF40914E0150914F0160915001709197
:1007E00051018C019D01041B150B260B370B0A30A0
:1007F00011052105310588F080934E0190934F013A
:10080000A0935001B093510180910E0290910F027C
:10081000019690930F0280930E021F910F910895FD
:100820000E94DD091F920F920FB60F9211242F9391
:100830003F934F935F936F937F938F939F93AF9368
:10084000BF93EF93FF938091130290911402A091B4
:100850001502B0911602892B8A2B8B2B59F18091AE
:100860001202E0911002F091110290818927808399
:100870008091130290911402A0911502B09116027A
:10088000181619061A061B060CF03DC080911302BB
:1008900090911402A0911502B09116020197A1093E
:1008A000B1098093130290931402A0931502B093A0
:1008B000160229C080910401E8EBF0E0E4919FEF7B
:1008C00090930401E130B9F098F0E230C9F49091CE
:1008D00070009D7F9093700091E09093B000909194
:1008E000B100987F94609093B1001092B30008C05B
:1008F00010926E0005C090916F009D7F90936F00E5
:1009000060E00E948E01FF91EF91BF91AF919F91A6
:100910008F917F916F915F914F913F912F910F90A8
:100920000FBE0F901F9018951F920F920FB60F9247
:1009300011242F933F934F935F936F937F938F93E4
:100940009F93AF93BF93EF93FF9387E192E00E9451
:10095000FA00FF91EF91BF91AF919F918F917F919D
:100960006F915F914F913F912F910F900FBE0F901C
:100970001F9018951F920F920FB60F9211242F936C
:100980008F939F93EF93FF93E0912702F0912802BA
:100990008081E0912D02F0912E0282FD12C09081A3
:1009A000809130028F5F8F7320913102821751F056
:1009B000E0913002F0E0E95EFD4F958F80933002C8
:1009C00001C08081FF91EF919F918F912F910F90A6
:1009D0000FBE0F901F9018951F920F920FB60F9297
:1009E00011242F933F938F939F93AF93BF93809145
:1009F000EB019091EC01A091ED01B091EE013091ED
:100A0000DF0123E0230F2D3720F40196A11DB11D36
:100A100005C026E8230F0296A11DB11D2093DF011A
:100A20008093EB019093EC01A093ED01B093EE0164
:100A30008091E0019091E101A091E201B091E30188
:100A40000196A11DB11D8093E0019093E101A09357
:100A5000E201B093E301BF91AF919F918F913F91DC
:100A60002F910F900FBE0F901F9018951F920F920D
:100A70000FB60F9211242F933F934F935F936F9371
:100A80007F938F939F93AF93BF93EF93FF93E091E7
:100A90000201F09103010995FF91EF91BF91AF9190
:100AA0009F918F917F916F915F914F913F912F9186
:100AB0000F900FBE0F901F9018951F920F920FB6B8
:100AC0000F9211242F933F934F935F936F937F93D4
:100AD0008F939F93AF93BF93EF93FF93E0910001A8
:100AE000F09101010995FF91EF91BF91AF919F9115
:100AF0008F917F916F915F914F913F912F910F90C7
:100B00000FBE0F901F9018951F920F920FB60F9265
:100B100011242F933F934F935F936F937F938F9302
:100B20009F93AF93BF93EF93FF938091B900887F1A
:100B3000803609F49CC068F5883209F45BC090F4F3
:100B4000803109F454C038F4882309F4F6C08830A1
:100B500009F44DC0F6C0883109F44CC0803209F464
:100B60005DC0EFC0803409F468C048F4803309F4F4
:100B700055C0883309F0E5C08093BC01D8C08035EA
:100B800009F44FC0883509F45DC0883409F0D9C034
:100B9000D6C0883909F4C7C0A8F4883709F467C0FB
:100BA00038F4883609F463C0803709F460C0C9C0DE
:100BB000883809F4B8C0803909F45FC0803809F07A
:100BC000C0C05BC0803B09F486C038F4803A09F4A9
:100BD00066C0883A09F47FC0B4C0803C09F4A7C05D
:100BE000883C09F4A4C0883B09F48AC0AAC080915B
:100BF000990110C09091BB018091BA01981770F5CE
:100C0000E091BB0181E08E0F8093BB01F0E0E656DE
:100C1000FE4F80818093BB0085EC86C08093BC0131
:100C20008EC0E091BB0181E08E0F8093BB0180916B
:100C3000BB00F0E0E656FE4F80839091BB018091AF
:100C4000BA016EC0E091BB0181E08E0F8093BB01C1
:100C50008091BB00F0E0E656FE4F80838091E50175
:100C600081116DC081E08093E40184EA61C083E07A
:100C70008093E60110929801CFCF80919801803245
:100C800008F051C0E091980181E08E0F80939801A7
:100C90008091BB00F0E0E858FE4F8083BDCF85EC2B
:100CA0008093BC001092E60180919801803230F46C
:100CB000E0919801F0E0E858FE4F108260919801B1
:100CC00070E0E0917601F091770188E791E0099575
:100CD0001092980136C084E08093E601109275016D
:100CE00010927401E0917201F09173010995809165
:100CF0007401811105C081E080937401109252014A
:100D0000E091750181E08E0F80937501F0E0EE5A5D
:100D1000FE4F80818093BB0090917501809174019A
:100D2000981708F479CF85E88093BC000AC085EC59
:100D30008093BC001092E60104C01092BC010E9496
:100D40007602FF91EF91BF91AF919F918F917F912B
:100D50006F915F914F913F912F910F900FBE0F9028
:100D60001F901895E7E1F2E01382128288EE93E07B
:100D7000A0E0B0E084839583A683B78329E031E0C7
:100D80003183208325EC30E03587248724EC30E064
:100D90003787268720EC30E0318B208B21EC30E048
:100DA000338B228B22EC30E0358B248B26EC30E029
:100DB000378B268B118E128E138E148EE4EBF2E09D
:100DC0001382128284839583A683B7838BE191E09B
:100DD00091838083E0ECF2E0138212828DE291E055
:100DE0009183808387E2848380E1808782E08187AA
:100DF000128688E083870895CF93DF9300D000D0D8
:100E00001F92CDB7DEB7789484B5826084BD84B577
:100E1000816084BD85B5826085BD85B5816085BDF5
:100E200080916E00816080936E00109281008091AD
:100E30008100826080938100809181008160809335
:100E40008100809180008160809380008091B1005A
:100E500084608093B1008091B00081608093B00085
:100E600080917A00846080937A0080917A00826019
:100E700080937A0080917A00816080937A008091DB
:100E80007A00806880937A001092C1001092EA0183
:100E90001092E9011092E8011092E7011092E60128
:100EA00081E08093E5011092E40161E082E10E941B
:100EB0008E0161E083E10E948E018091B9008E7FF6
:100EC0008093B9008091B9008D7F8093B90088E448
:100ED0008093B80085E48093BC001092C502809195
:100EE000C902823018F098E09093C5029091CA022E
:100EF000992339F0813029F48091C5028460809370
:100F0000C50262E370E080E090E00E943B026091E5
:100F1000CB0280EC92E00E942D0368EE73E080E04B
:100F200090E00E943B0260E380EC92E00E9492031A
:100F30000BE416E4C8010197F1F760E380EC92E05E
:100F40000E949203C8010197F1F760E380EC92E000
:100F50000E94920383E592E00197F1F760E280EC52
:100F600092E00E9492036091C502606240E080ECD2
:100F700092E00E94AB0384E08093C60240E06CE004
:100F800080EC92E00E94AB0340E061E080EC92E0F4
:100F90000E94AB035BE3E52E5FE1F52EC7010197ED
:100FA000F1F712E01093C70240E066E080EC92E0B7
:100FB0000E94AB0340E062E080EC92E00E94AB0351
:100FC000C7010197F1F788E08093CB0260E080ECE5
:100FD00092E00E942D0361E085E00E94DA0161E069
:100FE00084E00E94DA0160E082E00E94DA018CED88
:100FF00093E09093010180930001809169008360E8
:1010000080936900E89AE0912702F091280210830A
:10101000E0912302F09124021082E0912502F091E8
:10102000260280E1808310922F02E0912B02F09142
:101030002C0286E08083E0912902F0912A028081CF
:1010400080618083E0912902F0912A02808188608A
:101050008083E0912902F0912A0280818068808358
:10106000E0912902F0912A0280818F7D808360EBDC
:10107000462E512C612C712C74E0272E77E4372EEC
:10108000E8EBCE2EE0E0DE2E07EA10E0F9E8EF2EE6
:10109000F0E0FF2E80910E0290910F02A0E0B0E0F0
:1010A00080930A0290930B02A0930C02B0930D025E
:1010B0002FB7F8948091EB019091EC01A091ED0194
:1010C000B091EE012FBF8090060290900702A09091
:1010D0000802B09009029C01AD01281939094A099A
:1010E0005B09283C310541055105B0F080930602AB
:1010F00090930702A0930802B093090280910E0218
:1011000090910F02A0E0B0E080930202909303025E
:10111000A0930402B09305022FB7F8948091EB01DD
:101120009091EC01A091ED01B091EE012FBF809064
:10113000FE019090FF01A0900002B09001029C017E
:10114000AD01281939094A095B09243F314041059D
:10115000510500F18093FE019093FF01A0930002DE
:10116000B093010210920F0210920E021092FD0134
:1011700060E085E00E948E0161E084E00E948E01C3
:101180000E94CC034BE050E065E371E080EC92E01C
:101190000E94880080910A0290910B02A0910C029B
:1011A000B0910D020196A11DB11D40910202509116
:1011B00003026091040270910502481759076A07FB
:1011C0007B0718F081E08093FD018091FD0160E0D4
:1011D000882309F4CAC084E00E948E0161E085E0A2
:1011E0000E948E010E94CC034BE050E061E471E06C
:1011F00080EC92E00E94880080910401833019F411
:10120000F601949172C08F3F09F0A8C083E08093EB
:101210000401F60194919F3F09F4A0C0913009F1B7
:10122000923009F440C0911160C014BC15BC84B563
:10123000826084BD85B5816085BDF8018491E82F09
:10124000F0E0EE0FFF1FE656FF4F859194919093CB
:10125000F4018093F301F70184918093F20190E00F
:1012600046C01092800010928100809181008860B9
:101270008093810080918100816080938100F801DA
:101280008491E82FF0E0EE0FFF1FE656FF4F8591A7
:1012900094919093F1018093F001F70184918093F0
:1012A000EF0191E024C01092B0001092B100809143
:1012B000B00082608093B0008091B1008160809323
:1012C000B100F801849190E0880F991F86569F4FD6
:1012D000FC01259134913093110220931002F70103
:1012E00084918093120292E002C097FD37C061E0C2
:1012F00083E09D830E94DA019D81992309F443C014
:101300009230C9F19130C1F480918100887F816071
:101310008093810030928900209288004092F501EC
:101320005092F6016092F7017092F80180916F007F
:10133000826080936F0012C0923081F484E08093C9
:10134000B300409213025092140260921502709200
:1013500016028091700082608093700064E670E0F5
:1013600080E090E00E943B0203C085E00E948E0175
:101370000E9484018FCE8091B100887F8560809328
:10138000B1008DE8DCCF85B5887F846085BDF6E44B
:10139000F7BD4092F9015092FA016092FB01709200
:1013A000FC0180916E00826080936E00D7CFEE0FBB
:1013B000FF1F0590F491E02D099481E090E0F894EE
:0813C0000C94E209F894FFCF40
:1013C80075027502FF000000001B018800B300626F
:1013D80001E400C200D60000000000FE02CE02D9DF
:1013E80003A802C602B702A90200000000D20388BF
:1013F80000D903D80349742773204F4B212120209B
:0E1408000049742773204F56455221210000E1
:107E0000112484B714BE81FFF0D085E080938100F7
:107E100082E08093C00088E18093C10086E0809377
:107E2000C20080E18093C4008EE0C9D0259A86E02C
:107E300020E33CEF91E0309385002093840096BBD3
:107E4000B09BFECF1D9AA8958150A9F7CC24DD24C4
:107E500088248394B5E0AB2EA1E19A2EF3E0BF2EE7
:107E6000A2D0813461F49FD0082FAFD0023811F036
:107E7000013811F484E001C083E08DD089C08234E0
:107E800011F484E103C0853419F485E0A6D080C0E4
:107E9000853579F488D0E82EFF2485D0082F10E0AE
:107EA000102F00270E291F29000F111F8ED06801E7
:107EB0006FC0863521F484E090D080E0DECF843638
:107EC00009F040C070D06FD0082F6DD080E0C81688
:107ED00080E7D80618F4F601B7BEE895C0E0D1E017
:107EE00062D089930C17E1F7F0E0CF16F0E7DF06D8
:107EF00018F0F601B7BEE89568D007B600FCFDCFD4
:107F0000A601A0E0B1E02C9130E011968C91119780
:107F100090E0982F8827822B932B1296FA010C0160
:107F200087BEE89511244E5F5F4FF1E0A038BF0790
:107F300051F7F601A7BEE89507B600FCFDCF97BE46
:107F4000E89526C08437B1F42ED02DD0F82E2BD052
:107F50003CD0F601EF2C8F010F5F1F4F84911BD097
:107F6000EA94F801C1F70894C11CD11CFA94CF0C13
:107F7000D11C0EC0853739F428D08EE10CD085E9AC
:107F80000AD08FE07ACF813511F488E018D01DD067
:107F900080E101D065CF982F8091C00085FFFCCF94
:107FA0009093C60008958091C00087FFFCCF809118
:107FB000C00084FD01C0A8958091C6000895E0E648
:107FC000F0E098E1908380830895EDDF803219F02E
:107FD00088E0F5DFFFCF84E1DECF1F93182FE3DFCA
:107FE0001150E9F7F2DF1F91089580E0E8DFEE27F6
:047FF000FF270994CA
:027FFE00040479
:0400000300007E007B
:00000001FF